S019000070726F6A6563742069722073656E736F722E737265635F
S11300000C942A000C9434000C9434000C943400A6
S11300100C9434000C9434000C9434000C9434008C
S11300200C9434000C9434000C9434000C9434007C
S11300300C9434000C9434000C9434000C9434006C
S11300400C9434000C9434000C9434000C9434005C
S11300500C94340011241FBECFE5D8E0DEBFCDBF21
S11300600E9454000C949C000C94000085BB97984B
S1130070959A2FEF89E698E1215080409040E1F76E
S113008000C00000959815BA089585BB979A959A73
S11300902FEF89E698E1215080409040E1F700C0BD
S11300A00000959815BA08958FEF84BB81BB2FEF9C
S11300B080E792E0215080409040E1F700C00000CA
S11300C0D09AB89881E00E94360088E30E943600F6
S11300D08EE00E943600CFEFB09911C0CBBB8FE405
S11300E00E9445008EE40E9445002FEF89E698E1C6
S11300F0215080409040E1F700C00000EDCF1BBAD2
S113010081E00E94360088E30E9436008EE00E945F
S113011036008FE40E94450086E40E94450086E490
S11301200E9445002FEF89E698E1215080409040DD
S10F0130E1F700C00000D0CFF894FFCF2E
S9030000FC
