S01D0000737472656574206C69676874732070726F6A6563742E73726563AE
S11300000C942A000C9434000C9434000C943400A6
S11300100C9434000C9434000C9434000C9434008C
S11300200C9434000C9434000C9434000C9434007C
S11300300C9434000C9434000C9434000C9434006C
S11300400C9434000C9434000C9434000C9434005C
S11300500C94340011241FBECFE5D8E0DEBFCDBF21
S11300600E9436000C9458000C940000D09AB89862
S1130070D19AB998B0990CC0D89A2FEF8DEB9AE029
S1130080215080409040E1F700C00000D898F2CFA2
S1130090B1990CC0D99A2FEF8DEB9AE02150804092
S11300A09040E1F700C00000D998E4CF1BBAE2CF3A
S10700B0F894FFCFEE
S9030000FC
