:100000000C942A000C943F000C943F000C943F0089
:100010000C943F000C943F000C943F000C943F0064
:100020000C943F000C943F000C943F000C943F0054
:100030000C943F000C943F000C943F000C943F0044
:100040000C943F000C943F000C943F000C943F0034
:100050000C943F0011241FBECFE5D8E0DEBFCDBF1A
:1000600010E0A0E6B0E0EEE1F2E002C005900D92F3
:10007000A637B107D9F70E946C000C940D010C94BF
:10008000000089E683BFBB9A089585BB9798959A2F
:1000900083ED90E30197F1F700C00000959815BA41
:1000A000089585BB979A959A83ED90E30197F1F7B0
:1000B00000C00000959815BA0895CF93DF93EC0126
:1000C0008881882331F021960E9451008991811105
:1000D000FBCFDF91CF910895CF93DF9300D01F9294
:1000E000CDB7DEB78FEF84BB1ABA81BB83ED90E347
:1000F0000197F1F700C000000E94410087B1806CB9
:1001000087B986B1876A86B981E00E94450088E395
:100110000E9445008EE00E944500369A04B115B158
:100120001695079516950795C8018F5F9109813936
:10013000910560F484E68CBFEFECF7E03197F1F7BE
:1001400000C000008F5F8F3FB1F711C0C801805918
:1001500091408536910558F480E08CBFEFECF7E0D4
:100160003197F1F700C000008F5F8F3FB1F780E655
:1001700090E00E945D0080EC0E9445008DE690E0DA
:100180000E945D0088EC0E9445004AE0BE016F5F5E
:100190007F4FC8010E94D800CE0101960E945D00E9
:1001A00085E790E00E945D0080E80E944500B6CFA0
:1001B000BB274A3031F4992322F4BDE29095819512
:1001C0009F4F0C94E400BB27FB015527AA27880FFB
:1001D000991FAA1FA41710F0A41B83955051B9F7BB
:1001E000A05DAA3308F0A95DA193009779F7B1113A
:1001F000B1931192CB010C94FD00DC01FC01672F3F
:1002000071917723E1F7329704C07C916D937083ED
:0E0210006291AE17BF07C8F30895F894FFCFB0
:10021E00736D617274206272696467650074656DD6
:06022E00702863293D0069
:00000001FF
